:020000040800F2
:1000000000180020E91A00086D0700086F070008B3
:1000100000000000000000000000000000000000E0
:100020000000000000000000000000007107000850
:1000300000000000000000007307000875070008BA
:10004000691B000800000000691B0008691B00080C
:10005000691B0008691B0008691B0008691B000870
:1000600000000000691B0008691B0008691B0008EC
:10007000691B0008691B0008691B000800000000DC
:100080007D07000800000000000000009107000844
:10009000000000005D080008691B0008691B0008DB
:1000A00000000000691B000800000000691B000838
:1000B000691B00080000000000000000691B000828
:1000C00010B5064C2378002B07D1054B002B02D02E
:1000D000044800E000BF0123237010BD040000208D
:1000E00000000000C41B0008044B10B5002B03D017
:1000F0000349044800E000BF10BDC04600000000F6
:1001000008000020C41B0008002243088B4274D35F
:1001100003098B425FD3030A8B4244D3030B8B4208
:1001200028D3030C8B420DD3FF22090212BA030C11
:100130008B4202D31212090265D0030B8B4219D3F2
:1001400000E0090AC30B8B4201D3CB03C01A524112
:10015000830B8B4201D38B03C01A5241430B8B425A
:1001600001D34B03C01A5241030B8B4201D30B0343
:10017000C01A5241C30A8B4201D3CB02C01A52416A
:10018000830A8B4201D38B02C01A5241430A8B422D
:1001900001D34B02C01A5241030A8B4201D30B0216
:1001A000C01A5241CDD2C3098B4201D3CB01C01A30
:1001B000524183098B4201D38B01C01A524143093A
:1001C0008B4201D34B01C01A524103098B4201D328
:1001D0000B01C01A5241C3088B4201D3CB00C01A95
:1001E000524183088B4201D38B00C01A524143080D
:1001F0008B4201D34B00C01A5241411A00D2014632
:10020000524110467047FFE701B5002000F006F8A4
:1002100002BDC0460029F7D076E770477047C04658
:10022000F0B589B01422002103A801F0C3FC244BCF
:1002300059698020C003014359615A690240009204
:10024000009A596980208002014359615A6902402D
:100250000192019A5A698021C9020A435A615B6975
:100260000B400293029B174C002221009020C005F6
:1002700001F0A5FB80277F01134D002239002800E3
:1002800001F09DFB03940126049600240594069436
:1002900003A99020C00501F0C5FA07230393049435
:1002A000059603A9280001F0BDFA0397049605946A
:1002B000069403A9280001F0B5FA09B0F0BDC046C4
:1002C00000100240FF0300000004004830B587B072
:1002D0001022002102A801F06DFC082200216846CE
:1002E00001F068FC0F4C104B2360E023FF33636088
:1002F0000025A560D63BFF3BE3602561A56120009A
:1003000000F000FD80235B01029302A9200000F0B1
:1003100037FE009501956946200000F0BDFE07B04C
:1003200030BDC046300000200004004030B589B028
:100330001C22002101A801F03DFC0E4C0E4B236055
:100340000E4B63600025A5600A23E3602561A5616B
:10035000200000F0D7FC200000F008FD602301938E
:10036000029503950595002201A9200000F086FD65
:1003700009B030BD7400002000200040BF12000012
:1003800030B58FB01C22002107A801F013FC1C22FD
:100390000021684601F00EFC164D174B2B60174BE1
:1003A0006B600024AC60FA239B00EB602C616C61F5
:1003B000AC61280000F0A6FC280000F0BDFC07940A
:1003C000089409940A940B940C940D94002207A9A4
:1003D000280000F025FD00940194029403940494F5
:1003E00080239B01059306946946280000F07AFE5D
:1003F0000FB030BDB4000020004401407FBB0000BE
:1004000000B587B01022002102A801F0D3FB044BF5
:100410000193902001A9C00501F004FA07B000BDC6
:10042000FF03000070B586B004000E001422002106
:1004300001A801F0BFFBFFF7E3FF082C01DD053643
:10044000093CB44200DB013401231D00A540ADB2DC
:100450001C00B440A4B22A002243019202939026C9
:10046000F60501A9300001F0DDF900222900300075
:1004700001F0A5FA01222100300001F0A0FA06B037
:1004800070BD000010B50E4B1C780A212000FFF74C
:100490003BFE0C4B18700A212000FFF7BBFE0A4BF5
:1004A00019700A4B1C780A212000FFF72DFE084B1B
:1004B00018700A212000FFF7ADFE064B197010BD21
:1004C0002400002020000020210000202600002021
:1004D000220000202300002010B50E4B1B78002BBB
:1004E00012D00D4B1B78002B03D10C4A1278002A36
:1004F00008D0002B09D1094A1378013B1370064B31
:100500003B221A70FFF7BEFF10BD013B024A137079
:10051000F8E7C04625000020260000202400002027
:1005200070B52C4B187808281FD009284DD0032807
:1005300005D8294B1B789B00284A9C5816E00728B1
:1005400005D8274B1B789B00244A9C580EE00D28A9
:1005500005D8244B1B789B00204A9C5806E0224B70
:100560001B789B001D4A9C5800E000240323034095
:100570001E4A11788A00D2B29B18DBB2092809D929
:10058000861EF517AD0F7619032333405B1BDBB2D4
:10059000D318DBB201229A40144218D0FFF742FF71
:1005A0000C4B1A780132D2B21A7010490B78013311
:1005B000DBB20B70112A02D9064A00211170042BFC
:1005C00002D90A4B00221A7070BD094CCEE7FFF722
:1005D00017FFE5E72700002020000020FC1B000893
:1005E00021000020220000202300002028000020FD
:1005F000F0F0000010B590B02822002106A801F00C
:10060000D9FA10220021684601F0D4FA012304939C
:10061000059302240C9480235B020D9380235B03DB
:100620000E9304A800F09EFD07230093019400237D
:10063000029303930121684601F002F810B010BD47
:1006400010B501F0BFF8FFF7D5FFFFF7E9FDFFF7A1
:100650003DFEFFF76BFEFFF793FE3C4800F050FABB
:100660003B4800F04DFA3B4800F04AFA4CE03A4B68
:100670001B78002B0FD1384B01221A700A2001F091
:10068000BFF80221354801F093F90028F9D00A207B
:1006900001F0B6F83EE0304B00221A70EEE7304A27
:1006A00013780133DBB21370632B02D913000022DD
:1006B0001A70FFF7E7FE0A2001F0A2F8012127488F
:1006C00001F076F90028F9D00A2001F099F827E026
:1006D000244A13780133DBB21370632B02D9130061
:1006E00000221A70FFF7CEFE0A2001F089F80421DB
:1006F0001A4801F05DF90028F9D00A2001F080F8CD
:1007000014E0194B00221A700221144801F050F92C
:100710000028ACD00121114801F04AF90028BED0D0
:1007200004210E4801F044F90028D1D00A4B1B786F
:10073000002BE6D00B4B1B78002BE5D1084B1B7828
:10074000002BE1D1084B01221A70DDE730000020B8
:1007500074000020B40000202500002000040048A0
:100760002400002026000020700000207047FEE7D3
:100770007047704710B501F035F810BD10B503484B
:1007800000F0D0F9FFF7CCFE10BDC04630000020CD
:1007900010B5284800F0C6F9274A136801331360E2
:1007A000FA2B0BD9254B01221A70254B1B78002BF5
:1007B00003D0224B1B78002B35D110BDFA225200FA
:1007C000934203D91D4B00221A70EEE71D4A934253
:1007D00003D91A4B01221A70E7E7FA2292009342DA
:1007E00003D9164B00221A70DFE7174A934203D948
:1007F000124B01221A70D8E7144A934203D90F4BC7
:1008000000221A70D1E7124A934203D90B4B0122FE
:100810001A70CAE70F4A9342C7D90023074A1370D8
:10082000054A1360C1E7802149010B4801F0CDF86A
:10083000C3E7C046740000202C00002029000020DF
:1008400070000020EE020000E2040000DC05000061
:10085000D6060000CA0800000004004810B503488E
:1008600000F060F9FFF738FE10BDC046B40000206C
:1008700082B00A4B996901221143996199690A4032
:100880000092009ADA69802149050A43DA61DB693E
:100890000B400193019B02B07047C046001002401C
:1008A00000B585B00368214A934207D0204A93429D
:1008B00016D0204A934226D005B000BD1E4AD16909
:1008C00002231943D161D26913400193019B002295
:1008D0000021102001F07EF8102001F0ABF8EBE7CA
:1008E000154AD169802040000143D161D36903409A
:1008F0000293029B00220021ED3801F06BF81320D7
:1009000001F098F8D8E70C4A9169802080020143F1
:100910009161936903400393039B002200211520FA
:1009200001F058F8152001F085F8C5E700040040F3
:1009300000200040004401400010024030B5036A2E
:10094000012293430362036A426884697325AC43BE
:100950000D682C430225AB438D682B43114DA842F3
:1009600005D0114DA84202D0104DA84205D108254E
:10097000AB43CD682B430425AB430A4DA84205D0B9
:10098000094DA84202D0094DA84205D1084D2A4080
:100990004D692A438D692A43426084614A684263F3
:1009A000036230BD002C014000440140004801407A
:1009B000FFFCFFFF70B5036A184A13400362036A25
:1009C0004268C4697325AC430E682643144C234027
:1009D0008C6824022343134CA04216D0114CA04231
:1009E00005D0114CA04202D0104CA04207D1104CAF
:1009F00014404A69120122438C6925012A4342604E
:100A0000C6614A68C263036270BD0A4C1C40CB6871
:100A10001B022343084C2340E0E7C046FFFEFFFFD4
:100A2000FFFDFFFF002C0140004401400048014051
:100A3000FFCFFFFFFFF7FFFFFFFBFFFF30B5036AAC
:100A4000114A13400362026A4368C4690F4D2C4087
:100A50000D682D022C430E4D15408A6812032A435F
:100A60000C4DA84205D00C4DA84202D00B4DA84217
:100A700004D10B4D2B404D69AD012B434360C46144
:100A80004B680364026230BDFFEFFFFFFF8CFFFF86
:100A9000FFDFFFFF002C01400044014000480140FF
:100AA000FFBFFFFF30B5036A046A0125AC4304624F
:100AB0008469EF35AC43120122430A24A34319434E
:100AC0008261016230BD000030B5036A1024A34387
:100AD00003628469036A054D2C4012032243A0245B
:100AE000A343090119438261016230BDFF0FFFFF7B
:100AF0008368702293430722114319438160704732
:100B00000368DA6801210A43DA60026813680B435C
:100B100013600020704770477047704770477047F8
:100B20007047704710B5040003681A6992070FD523
:100B3000DA6892070CD5032252421A610123037727
:100B400003689B699B0763D0FFF7E9FF00232377C6
:100B500023681A69520712D5DA6852070FD50522A1
:100B600052421A610223237723689A69C0239B00AB
:100B70001A4253D02000FFF7D2FF002323772368C7
:100B80001A69120710D5DA6812070DD509225242E8
:100B90001A61042323772368DB699B0745D0200073
:100BA000FFF7BDFF0023237723681A69D20612D509
:100BB000DA68D2060FD5112252421A610823237730
:100BC0002368DA69C0239B001A4235D02000FFF762
:100BD000A6FF0023237723681A69D20702D5DA68B3
:100BE000D20730D423681A69120602D5DA681206D1
:100BF00030D423681A69520602D5DA68520630D416
:100C000023681A69920602D5DA68920630D410BDBC
:100C1000FFF784FF2000FFF783FF97E72000FFF72F
:100C20007DFF2000FFF77CFFA7E72000FFF776FF9E
:100C30002000FFF775FFB5E72000FFF76FFF2000EA
:100C4000FFF76EFFC5E7022252421A612000FFF74C
:100C500064FFC7E7812252421A61200000F081FA46
:100C6000C7E7412252421A612000FFF75AFFC7E747
:100C7000212252421A61200000F072FAC7E70000F8
:100C800003681A4A904202D0194A904203D1702256
:100C900093434A681343154A90420BD0144A90423A
:100CA00008D0144A904205D0134A904202D0134A09
:100CB000904203D1124A1340CA68134380229343DF
:100CC0004A69134303608B68C3620B688362074BF6
:100CD000984205D0084B984202D0084B984201D167
:100CE0000B690363012343617047C046002C014038
:100CF0000004004000200040004401400048014042
:100D0000FFFCFFFF70B5041E14D03D23C35C002B15
:100D10000AD03D2502236355211D2068FFF7B0FF4F
:100D200001236355002070BD3C330022C254FFF7FD
:100D3000B7FDEEE70120F6E770B5041E14D03D23A1
:100D4000C35C002B0AD03D2502236355211D20687A
:100D5000FFF796FF01236355002070BD3C3300224E
:100D6000C254FFF7D8FEEEE70120F6E770B5041E87
:100D700014D03D23C35C002B0AD03D2502236355CC
:100D8000211D2068FFF77CFF01236355002070BD03
:100D90003C330022C254FFF7BFFEEEE70120F6E726
:100DA00070B5036A102293430362036A4268846940
:100DB000164D2C400D682D0225432024A3438C683A
:100DC00024012343124CA04216D0114CA04205D05E
:100DD000104CA04202D0104CA04207D10F4C14403E
:100DE0004A69920022438C69A600324342608561C1
:100DF0004A688263036270BD8024A3431C00CB68F1
:100E00001B0123434024A343DFE7C046FF8CFFFFC1
:100E1000002C01400044014000480140FFF3FFFF67
:100E200010B504003C23C35C012B25D03C230120DA
:100E3000E05401330130E054042A15D007D9082AC0
:100E400016D00C2A08D12068FFF7F8FD04E0002A2C
:100E500002D12068FFF772FD3D230122E254013BDD
:100E60000022E254002010BD2068FFF799FFF3E74D
:100E70002068FFF79FFDEFE70220F4E770B504005C
:100E80000D003C23C35C012B69D03C230121C154DC
:100E900001330131C154042A37D019D9082A4AD064
:100EA0000C2A2AD129000068FFF7C8FD2268D16901
:100EB00080231B010B43D3612268D36929490B406E
:100EC000D3612168CB692A6912021343CB6114E014
:100ED000002A12D129000068FFF730FD22689369CB
:100EE00008210B4393612268936904398B43936112
:100EF0002268936929690B4393613D230122E254DF
:100F0000013B0022E254002070BD29000068FFF779
:100F100047FF2268916980231B010B43936122687C
:100F2000936910490B40936121688B692A69120209
:100F300013438B61E1E729000068FFF73BFD22685E
:100F4000D36908210B43D3612268D36904398B43E9
:100F5000D3612268D36929690B43D361CDE70220AD
:100F6000D2E7C046FFFBFFFF30B58468034D2C403D
:100F70001B021A4311432143816030BDFF00FFFF74
:100F800010B504003C23C35C012B00D17FE03C235F
:100F90000122C25401330132C254026893683D48B1
:100FA000034093600B68402B5DD010D9702B43D069
:100FB00020D8502B4DD0602B36D1CA6849682068A4
:100FC000FFF782FD60212068FFF792FD2CE0102BD7
:100FD00053D008D9202B55D0302B25D13021206873
:100FE000FFF786FD20E0002B1ED100212068FFF7CF
:100FF0007FFD19E080225201934210D0802292019D
:10100000934211D1CB684A6889682068FFF7ACFF2A
:10101000226891688023DB010B43936004E022681F
:10102000936807218B4393603D230122E254013BE7
:101030000022E254002010BDCB684A68896820680D
:10104000FFF792FF2268936877218B430B439360ED
:10105000EAE7CA6849682068FFF724FD5021206844
:10106000FFF746FDE0E7CA6849682068FFF71AFD08
:1010700040212068FFF73CFDD6E710212068FFF7EC
:1010800037FDD1E720212068FFF732FDCCE70220B1
:10109000D1E7C0468800FFFFF0B53C23C35C012BBD
:1010A0001ED03C22012585543D24022303550668A9
:1010B00073687027BB437360066873680F683B43AF
:1010C00073600668B3688027BB43B3600668B36883
:1010D00049680B43B3600555002383540020F0BDDD
:1010E0000220FCE770B53C23C35C012B28D03C22D6
:1010F000012585543D2402230355124BCE6833400D
:101100008E683343104E33404E6833430F4E3340A6
:101110000E6833430E4E33400E6933430D4E334059
:101120004E6933430C4E334089690B430B4E3340B9
:101130000B4301684B64055500238354002070BDA8
:101140000220FCE7FFFCFFFFFFFBFFFFFFF7FFFFB5
:10115000FFEFFFFFFFDFFFFFFFBFFFFFFF7FFFFF8F
:101160007047704770B582B004000368DB072BD569
:10117000B34B5A680C231340042B1DD0B04B5A6854
:101180000C231340082B0ED06368012B41D0002B99
:1011900056D1AB4B1A68AB490A401A601A68AA4983
:1011A0000A401A603BE0A64B5B68C0225202134023
:1011B000802252029342E7D1A14B1B689B0303D5C7
:1011C0006368002B00D1F1E123689B0778D59C4B25
:1011D0005B680C221A4262D0994B5A680C23134068
:1011E000082B53D0E368002B00D18BE0944A13689E
:1011F00001210B43136000F0FDFA0500904B1B68C2
:101200009B0776D400F0F6FA401B0228F6D903209B
:10121000CFE18B4A116880235B020B431360636844
:10122000002B25D000F0E6FA0500854B1B689B03D8
:10123000CAD400F0DFFA401B6428F6D90320B8E1D5
:10124000052B09D07E4B1A687E490A401A601A683D
:101250007D490A401A60E2E7794B19688022D20280
:101260000A431A601968802252020A431A60D6E7BC
:1012700000F0C0FA0500724B1B689B03A4D500F078
:10128000B9FA401B6428F6D9032092E16C4B5B68E5
:10129000C02252021340802212029342A2D1684B14
:1012A0001B689B0704D5E368012B01D0012080E176
:1012B00063490B68F82293432269D20013430B6001
:1012C00023681B0744D5E369002B2ED05C4A536A80
:1012D00001210B43536200F08DFA0500584B5B6A05
:1012E0009B0735D400F086FA401B0228F6D903206C
:1012F0005FE153490B68F82293432269D2001343FC
:101300000B60DDE74E4A136801218B43136000F048
:1013100071FA05004A4B1B689B07D1D500F06AFAA9
:10132000401B0228F6D9032043E1454A536A0121B4
:101330008B43536200F05EFA0500414B5B6A9B07EA
:1013400006D500F057FA401B0228F6D9032030E1F9
:1013500023685B0700D47FE0394BDB69DB001DD4D9
:10136000374AD169802040050143D161D3690340E8
:101370000193019B0125354B1B68DB0510D5A36844
:10138000012B21D0002B36D12D4B1A6A01218A4323
:101390001A621A6A03318A431A621AE00025EAE7E0
:1013A0002A4A116880235B000B43136000F022FA85
:1013B0000600264B1B68DB05E1D400F01BFA801BFE
:1013C0006428F6D90320F4E01D4A136A01210B4377
:1013D0001362A368002B24D000F00CFA0600184B0F
:1013E0001B6A9B0736D400F005FA801B184B984205
:1013F000F5D90320DDE0052B09D0114B1A6A012134
:101400008A431A621A6A03318A431A62E1E70C4B73
:101410001A6A04210A431A621A6A03390A431A62D1
:10142000D7E700F0E7F90600054B1B6A9B0711D5CB
:1014300000F0E0F9801B064B9842F5D90320B8E094
:1014400000100240FFFFFEFFFFFFFBFF00700040A7
:1014500088130000012D33D02368DB0610D56369A3
:10146000012B33D0053351D1544A536B04218B43A4
:101470005363536BF4318B43A169C9000B4353632E
:10148000236A002B00D193E04C4A51680C220A4099
:10149000082A00D18FE0022B4FD0484A13684849F0
:1014A0000B40136000F0A6F90400444B1B689B013D
:1014B0007AD500F09FF9001B0228F6D9032078E0C6
:1014C0003E4AD3693F490B40D361C5E73B4B5A6B5A
:1014D00004210A435A635A6B03390A435A6300F0E2
:1014E00089F90500354B5B6B9B0706D400F082F948
:1014F000401B0228F6D903205BE030494B6BF822F1
:101500009343A269D20013434B63B9E72B4B5A6B49
:1015100004210A435A635A6B03398A435A6300F021
:1015200069F90500254B5B6B9B07A9D500F062F9B3
:10153000401B0228F6D903203BE0204A13682049CB
:101540000B40136000F056F905001C4B1B689B0113
:1015500006D500F04FF9401B0228F6D9032028E0F9
:10156000164BDA6A0F218A43E16A0A43DA625A6843
:1015700015490A40A16A606A01430A435A60196822
:10158000802252040A431A6000F034F904000B4B25
:101590001B689B0106D400F02DF9001B0228F6D928
:1015A000032006E0002004E0002002E0012000E02B
:1015B000002002B070BD0120FBE7C04600100240D1
:1015C000FFFFFFFEFFFFFFEFFF7FC2FF30B589B0D7
:1015D00004AA184B180032C832C2110002680A600F
:1015E0006A46103313CB13C21B681360124B5B683F
:1015F0000C221A40082A1BD1990C0732114004A86A
:10160000445C0D49C96A0A406946895CC02252029D
:10161000134080225202934205D00848FEF774FD21
:10162000604309B030BD0548FEF76EFD6043F8E742
:101630000248F6E7DC1B00080010024000127A00A6
:1016400070B505000C004D4B1A68012313408B4206
:101650000BD24A490B680122934323430B600B686A
:101660001A40A24201D0012070BD2B689B0706D50D
:10167000434A5368F0218B43A9680B4353602B689E
:10168000DB074BD56B68012B20D0022B24D03C4AC2
:10169000126892076FD53A494A6803208243134380
:1016A0004B6000F0A7F806006B68012B1AD0022BE4
:1016B00026D0334B5B680C221A422FD000F09AF8E8
:1016C000801B304B9842F4D90320CDE72C4A126896
:1016D0009203E0D40120C7E7294A12689201DAD4C4
:1016E0000120C1E7264B5A680C231340042B15D068
:1016F00000F080F8801B234B9842F3D90320B3E716
:101700001F4B5A680C231340082B07D000F072F8C7
:10171000801B1C4B9842F3D90320A5E7174B1A688E
:1017200001231340A3420BD914490B6801229343B0
:1017300023430B600B681A40A24201D0012093E7BB
:101740002B685B0706D50E4A53680F490B40E968C2
:101750000B435360FFF73AFF094B5A6812090F23F6
:1017600013400A4AD35CD840094B1860002000F0AF
:1017700017F8002078E7012076E7C04600200240F5
:101780000010024088130000FFF8FFFF241C00082F
:1017900000000020014B18687047C0460000002080
:1017A00010B50400FFF7F6FFFA218900FEF7ACFC44
:1017B00000F04AF9012000222100404200F00AF91D
:1017C000002010BD10B5064A136810210B431360AA
:1017D0000020FFF7E5FFFFF74BF8002010BDC046E3
:1017E00000200240024A1368013313607047C0466C
:1017F000F4000020014B18687047C046F400002038
:1018000030B583B00190FFF7F5FF0500019C631C24
:1018100000D00134FFF7EEFF401BA042FAD303B023
:1018200030BD0000F0B5C64600B582B0002338E0F8
:10183000032600E00026AE4035003D430234A400FC
:10184000554EA551554C25684246D4432E0026409E
:101850004A68D20302D5424615432E004F4D2E60F2
:101860006D682E0026404A68920302D54246154311
:101870002E004A4D6E60AD682E0026404A68D202A6
:1018800002D5424615432E00444DAE60ED682C4013
:101890004A68920202D542462A4314003F4AD46065
:1018A00001330A681400DC4071D001259D402A40B4
:1018B0009046F5D04C68022C01D0122C0ED1DC08D9
:1018C0000834A400275807261E40B6000F22B24055
:1018D00097430A69B24016003E43265002685F00F3
:1018E00003242600BE40F643324094464A68144022
:1018F000BC406246144304604C68621E012A03D94E
:10190000112C01D0122C10D184683440A446CC682C
:10191000BC406246144384604468AC434A68120980
:10192000012515409D4025434560C46826408C68CC
:10193000BC403443C4604A68D200B1D5184DAE698A
:1019400001242643AE61AD692C400194019C9C08A2
:10195000A51CAD00104EAF5903251D40AD000F264C
:10196000AE40B7439026F605B04200D162E70D4E77
:10197000B04208D00C4EB04207D00C4EB04200D15D
:1019800056E7052657E7012655E7022653E702B03A
:1019900004BC9046F0BDC046000001400004014078
:1019A000001002400004004800080048000C0048F5
:1019B00003690B4201D1002070470120FCE7002A97
:1019C00001D1816270478161FCE7436959404161FF
:1019D0007047000070B5002811DB8408134DC03437
:1019E000A400625903231840C000FC331E00864047
:1019F000B24389010B4083401343635170BDC0B2B1
:101A00000F220240083A920806329200084BD3187F
:101A10005D6803242040C000FF2214008440A543D9
:101A200089010A4082402A435A60E7E700E100E06A
:101A300000ED00E01F2318401E3B8340014A136065
:101A40007047C04600E100E001380A4B98420FD8C9
:101A5000094A50600948036A1B021B0AC021090693
:101A60000B43036200239360073313600020704729
:101A70000120FCE7FFFFFF0010E000E000ED00E0C8
:101A8000134B1A6801210A431A605A681148024030
:101A90005A601A68104802401A601A680F480240DB
:101AA0001A605A680E4802405A60DA6A0F20824370
:101AB000DA621A6B0B4802401A631A6B80200243E9
:101AC0001A635A6B8A435A6300229A607047C04671
:101AD000001002400CB8FF08FFFFF6FEFFFFFBFFFF
:101AE000FFFFC0FF6CFEFFFF1348854613480168E7
:101AF000090E134A914205D1124813490160134857
:101B00001349016013481449144A002302E0D458D1
:101B1000C4500433C4188C42F9D3114A114C002329
:101B200001E013600432A242FBD3FFF7A9FF00F0EB
:101B30001DF8FEF785FDFEE70018002004000000F8
:101B40001F000000181002400100000000000140CA
:101B50000000000000000020040000203C1C0008E1
:101B600004000020F8000020FEE7000070B5002609
:101B70000C4D0D4C641BA410A64209D1002600F0A8
:101B800021F80A4D0A4C641BA410A64205D170BD71
:101B9000B300EB5898470136EEE7B300EB5898478F
:101BA0000136F2E7341C0008341C0008341C00081D
:101BB000381C000803001218934200D170471970B6
:101BC0000133F9E7F8B5C046F8BC08BC9E4670473B
:0C1BD000F8B5C046F8BC08BC9E46704743
:101BDC0002030405060708090A0B0C0D0E0F101062
:101BEC000102030405060708090A0B0C0D0E0F1061
:101BFC00AEAA0E0064440E008E2E0E008E8E0E00C9
:101C0C00AA8E08002E8E0E002EAE0E008E880800B6
:101C1C00AEAE0E00AE8E080000000000000000000A
:081C2C00010203040607080988
:041C3400E9000008BB
:041C3800C1000008DF
:041C3C0000127A0018
:0400000508001AE9EC
:00000001FF
