:020000040800F2
:10000000001800200D370008150A0008170A00081C
:1000100000000000000000000000000000000000E0
:10002000000000000000000000000000190A0008A5
:1000300000000000000000001B0A00081D0A000864
:100040008D370008000000008D3700088D3700084C
:100050008D3700088D3700088D3700088D37000870
:10006000000000008D3700088D3700088D3700082C
:100070008D3700088D3700088D370008000000001C
:10008000250A000800000000000000008D3700086D
:10009000000000008D3700088D3700088D370008FC
:1000A000000000008D370008000000008D370008B8
:1000B0008D3700080000000000000000390A000829
:1000C00010B5064C2378002B07D1054B002B02D02E
:1000D000044800E000BF0123237010BD5801002038
:1000E00000000000E8370008044B10B5002B03D0D7
:1000F0000349044800E000BF10BDC04600000000F6
:100100005C010020E8370008002243088B4274D3CA
:1001100003098B425FD3030A8B4244D3030B8B4208
:1001200028D3030C8B420DD3FF22090212BA030C11
:100130008B4202D31212090265D0030B8B4219D3F2
:1001400000E0090AC30B8B4201D3CB03C01A524112
:10015000830B8B4201D38B03C01A5241430B8B425A
:1001600001D34B03C01A5241030B8B4201D30B0343
:10017000C01A5241C30A8B4201D3CB02C01A52416A
:10018000830A8B4201D38B02C01A5241430A8B422D
:1001900001D34B02C01A5241030A8B4201D30B0216
:1001A000C01A5241CDD2C3098B4201D3CB01C01A30
:1001B000524183098B4201D38B01C01A524143093A
:1001C0008B4201D34B01C01A524103098B4201D328
:1001D0000B01C01A5241C3088B4201D3CB00C01A95
:1001E000524183088B4201D38B00C01A524143080D
:1001F0008B4201D34B00C01A5241411A00D2014632
:10020000524110467047FFE701B5002000F006F8A4
:1002100002BDC0460029F7D076E770477047C04658
:1002200070B588B01422002103A803F0D5FA224B40
:1002300059698020C003014359615A690240009204
:10024000009A596980208002014359615A6902402D
:100250000192019A5A698021C9020A435A615B6975
:100260000B400293029B154C9026F60500222100BC
:10027000300002F014FC0394012504950024059439
:10028000069403A9300002F03DFB07230393049476
:1002900005950B4D03A9280002F034FB80235B0178
:1002A0000393022304930594069403A9280002F003
:1002B00029FB08B070BDC04600100240FF030000DB
:1002C0000004004830B587B01022002102A803F0D6
:1002D00083FA08220021684603F07EFA0F4C104B87
:1002E0002360E023FF3363600025A560D63BFF3B1E
:1002F000E3602561A561200001F034FE80235B01ED
:10030000029302A9200001F053FE00950195694671
:10031000200001F0D9FE07B030BDC046A003002088
:100320000004004000B587B01022002102A803F0AD
:1003300053FA044B0193902001A9C00502F0E2FAA0
:1003400007B000BDFF03000070B586B004000E00CA
:100350001422002101A803F03FFAFFF7E3FF082C65
:1003600001DD0536093CB44200DB013401231D00E8
:10037000A540ADB21C00B440A4B22A0022430192B1
:1003800002939026F60501A9300002F0BBFA002284
:100390002900300002F083FB01222100300002F02E
:1003A0007EFB06B070BD000070B52C4B1878082895
:1003B0001FD009284DD0032805D8294B1B789B0056
:1003C000284A9C5816E0072805D8274B1B789B0025
:1003D000244A9C580EE00D2805D8244B1B789B001E
:1003E000204A9C5806E0224B1B789B001D4A9C58D3
:1003F00000E00024032303401E4A11788A00D2B291
:100400009B18DBB2092809D9861EF517AD0F76199E
:10041000032333405B1BDBB2D318DBB201229A40CB
:10042000144218D0FFF790FF0C4B1A780132D2B269
:100430001A7010490B780133DBB20B70112A02D904
:10044000064A00211170042B02D90A4B00221A70AF
:1004500070BD094CCEE7FFF765FFE5E77A010020A4
:10046000740100202038000875010020760100206A
:10047000770100207B010020F0F0000010B596B05D
:10048000282200210CA803F0A7F91022002106A8B9
:1004900003F0A2F91422002101A803F09DF9012321
:1004A0000A930B930224129480235B0213938023FC
:1004B0005B0314930AA801F02FFE07230693079409
:1004C000002308930993012106A802F093F88023E2
:1004D0009B0201938023059301A802F03BF916B01B
:1004E00010BD000010B502F0DDF9FFF7C7FFFFF700
:1004F00097FE00F06FF8FFF7E5FE2D4801F032FCA3
:100500001FE02C4B1C780A212000FFF7FDFD2A4B31
:1005100018700A212000FFF77DFE284B19700A2071
:1005200002F0DEF90121264802F0B2FA0028F9D0E3
:100530000A2002F0D5F90421214802F0A9FA002886
:1005400010D001211E4802F0A3FA0028F3D1194A65
:1005500013780133DBB21370632BD2D9130000225E
:100560001A70CEE7174A13780133DBB21370632B8E
:1005700002D9130000221A70124B1C780A212000A5
:10058000FFF7C2FD104B18700A212000FFF742FE52
:100590000E4B19700A2002F0A3F90421084802F05A
:1005A00077FA0028F9D00A2002F09AF9C9E7C04684
:1005B000A0030020780100207401002075010020B4
:1005C0000004004879010020760100207701002016
:1005D0007047000010B5094C00220949200002F0C4
:1005E000EFFA0849200002F007FB0749200003F05A
:1005F00053F8200002F009FB10BDC046E0030020C4
:1006000000000020480000203400002010B5FFF753
:1006100035FF10BD00B583B002680C4B9A4201D083
:1006200003B000BD0A4AD169802000040143D161B2
:10063000D36903400193019B002200211F2002F097
:1006400035FA1F2002F062FAEAE7C046005C00407B
:100650000010024010B5010087239B00C058ED3107
:10066000FF3102F0EFFA10BD10B5030087229200AF
:100670008058CA00521A94001B191933FF331A68A4
:1006800002F014FB10BD10B50300872292008058C1
:10069000CA00521A94001B199A6B02F043FB10BD5A
:1006A00010B587239B00C05802F0D5FB10BD70B574
:1006B00005008724A4000121005902F0B7FB285946
:1006C00002F091FB70BD000010B5040087239B0071
:1006D000C05802F0AEFBA369002B04D0024A136994
:1006E00006210B43136110BD00ED00E010B50400BE
:1006F0008369002B05D187239B00E05802F0A4FBFF
:1007000010BD044A136906218B431361FFF77EFF76
:10071000F1E7C04600ED00E070B504001E488723F5
:100720009B00C4500433E0501C4B0360082343601B
:10073000022282600023C36002618361C36103629D
:1007400000F0B8F9002823D18825AD001823002235
:100750000021605901F0BCFA582300228021605921
:1007600001F0B6FAC02300228121605901F0B0FAED
:1007700088235B0000220121605901F0A9FA605929
:1007800080235B000022822101F0A2FA002070BDCC
:10079000FFF71EFFD8E7C04604060020005C0040BB
:1007A00010B588239B00C05800F0E4F9002803D05E
:1007B000022803D0022010BD0020FCE70120FAE748
:1007C00010B514001A0088239B00C058230000F0C5
:1007D000F9F9002803D0022803D0022010BD002020
:1007E000FCE70120FAE710B588239B00C05800F011
:1007F00093FB002803D0022803D0022010BD002064
:10080000FCE70120FAE710B588239B00C05800F0F0
:1008100075FD002803D0022803D0022010BD00205F
:10082000FCE70120FAE710B588239B00C05800F0D0
:10083000C5FD002803D0022803D0022010BD0020EF
:10084000FCE70120FAE70A0088239B00C35849B25D
:10085000002909DB7F211140CA00511A8A009B1828
:100860000B33FF33187870477F211140C800411ABD
:100870008A009B182A331878F5E710B588239B0067
:10088000C05800F083F9002803D0022803D00220CA
:1008900010BD0020FCE70120FAE710B58824A40071
:1008A000005900F00FFE002803D0022803D00220D8
:1008B00010BD0020FCE70120FAE710B58824A40051
:1008C000005900F011FC002803D0022803D00220B8
:1008D00010BD0020FCE70120FAE710B588239B003B
:1008E000C05800F001FD10BD004870477C01002099
:1008F0007047000012230B80004870471C00002046
:1009000004230B80004870473000002010B50A0017
:10091000002805D00549064802F04BFD034810BDEC
:100920000249034802F045FDF8E7C04624080020CC
:100930006C38000810B50A00034C2100034802F08F
:1009400038FD200010BDC04624080020643800088F
:1009500010B50A00002805D00549064802F029FD17
:10096000034810BD0249034802F023FDF8E7C046E2
:10097000240800207438000810B50A00002805D0AB
:100980000549064802F015FD034810BD0249034819
:1009900002F00FFDF8E7C0462408002048380008A0
:1009A00010B50A00002805D00549064802F001FDEF
:1009B000034810BD0249034802F0FBFCF8E7C046BB
:1009C0002408002054380008002070470020704799
:1009D00010B50100044C200002F072FE200002F06D
:1009E00076FE002010BDC046E003002010B5064C86
:1009F00000220649200002F058FE0549200002F0BE
:100A00005FFE002010BDC046E00300200C0E002059
:100A1000240A00207047FEE77047704710B501F0C8
:100A200051FF10BD10B5034801F0ACF9FFF7BCFC55
:100A300010BDC046A003002010B5024801F0BAF86E
:100A400010BDC0460406002082B00A4B99690122FD
:100A50001143996199690A400092009ADA698021EC
:100A600049050A43DA61DB690B400193019B02B03F
:100A70007047C0460010024000B583B002680B4BBF
:100A80009A4201D003B000BD094AD169022319433B
:100A9000D161D26913400193019B002200211020F3
:100AA00002F004F8102002F031F8EBE700040040F7
:100AB0000010024070B5041E58D0EA23FF33C35C17
:100AC000002B05D0EA23FF330322E254002218E072
:100AD000E933FF330022C254FFF79CFDF2E7D10057
:100AE000891A8B00E3181900293101200870013997
:100AF0000A7018002B300021017059639963D96383
:100B0000013260689042EAD8002214E0D100891ACC
:100B10008B00E3181D000A35FF3500212970013DC7
:100B20002A700335297009352960043529601D3381
:100B3000FF33196001329042E8D840230122216836
:100B4000CA5200222168CA524421206842520C3104
:100B500020684252064A2168CA5200221C3BE254D5
:100B60000122EA23FF33E254002070BD0120FCE79C
:100B700000BFFFFF016858228B5A034803439BB212
:100B80008B5200207047C0460080FFFFF4235B00BB
:100B9000C35C012B13D0F4235B000122C254002953
:100BA0000AD19D3BFF3B7F320168CA52F4235B00B0
:100BB0000022C254002070472423C154F6E70220CB
:100BC000F9E70000F0B54DB2002D65DB7F240C4045
:100BD000E600361BB4000934FF3404197F26314087
:100BE0002170ED0F6570E260E370F4235B00C35C7D
:100BF000012B00D175E1F4235B000122C254E3789C
:100C0000012B00D174E0002B4ED0022B59D0032BC6
:100C100061D02278930001688C4663441988B24DF4
:100C200029400A43B1490A431A80A37A002B00D015
:100C3000B5E06378002B00D167E0A28805685023F7
:100C4000EB5A2178C9005B185B198021C9008C46DA
:100C5000634401218A431A8023789B0002689446EA
:100C600063441A88510604D59F490A40A0490A43A3
:100C70001A802278920003689C46624413889D493A
:100C80000B4020214B4099490B431380F4235B0018
:100C90000022C2540020F0BD7F240C40E600361B29
:100CA000B4002834041999E723789B00026894461D
:100CB00063441A8890491140802292000A431A80A6
:100CC000A7E723789B000268944663441A888A4900
:100CD0000A401A809DE723789B000268944663448B
:100CE0001A8885491140C022D2000A431A8090E731
:100CF00023789B000268944663441A887E49114019
:100D00008022D2000A431A8083E7A2880568502611
:100D1000AB5B2178C9005B185B1978498C4663444A
:100D200001218A431A8001688B5B2278D2009B18CC
:100D30005B18734A94466344E1683E2926D94A0900
:100D400092B2C90601D1013A92B2920292B26D49B1
:100D50000A431A8023789B000268944663441A88E9
:100D6000510404D560490A4067490A431A80237830
:100D70009B000268944663441988644A1140C0226B
:100D800092015140594A0A431A807FE74A0892B2B9
:100D9000C90701D5013292B292021A80DAE72378AC
:100DA0009B000268944663441A8859491140594A85
:100DB0000A431A80E28805685027EB5B2178C90056
:100DC0005B185B198021C9008C4663440126B2433D
:100DD0001A8022890568EB5B2178C9005B185B19D2
:100DE00046498C466344B2431A806378002B3DD158
:100DF00023789B000268944663441A88510404D502
:100E000039490A4040490A431A8023789B00026806
:100E1000944663441A88510604D533490A4034493C
:100E20000A431A8023789B000268944663441A8818
:100E30002D4911402E4A0A431A80217889000368FF
:100E40009C4661440B88314A1A40C0239B015340A1
:100E5000264A13430B8023789B0001688C46634429
:100E60001988244C21400A431A800FE723789B00FD
:100E70000268944663441A88510404D51A490A400A
:100E800021490A431A8023789B00026894466344F0
:100E90001A88510604D514490A4015490A431A8094
:100EA00023789B000268944663441A880E491140D7
:100EB000154A0A431A802178890003689C466144D8
:100EC0000B880C4A1340094A13430B8023789B007C
:100ED00001688C46634419880C4C21400A431A80EF
:100EE000D4E60220D7E6C0460F0F00008080FFFF47
:100EF000C080FFFFBF8FFFFF8F89FFFF040400004A
:100F0000060400000080FFFF80C0FFFF8FBFFFFFCF
:100F10000F0E00008081FFFF10B54AB2002A3ADBB5
:100F20007F230B40DC00E41AA3000933FF33C3180E
:100F30007F2421401970D20F5A70F4225200825C33
:100F4000012A00D1C1E0F4225200012181549A7A91
:100F5000002A41D15A78002A25D01A7892000168D7
:100F60008C46624411884C0604D5594C2140594C9A
:100F7000214311801B789B000268944663441A88C1
:100F800055491140554A0A431A80F4235B00002258
:100F9000C254002010BD7F230B40DC00E41AA300E4
:100FA0002833C318C4E71A78920001688C4662445B
:100FB00011884C0404D5464C2140494C21431180F2
:100FC0001B789B000268944663441A884549114087
:100FD000424A0A431A80D8E75A78002A3AD11A7846
:100FE000920001688C46624411884C0404D5384C48
:100FF00021403B4C214311801A78920001688C46B5
:10100000624411884C0604D5314C2140314C2143B7
:1010100011801A78920001688C46624411882C4C29
:101020000C402C49214311801C78A400026894468E
:10103000644422882B490A4028490A4322801B78AD
:101040009B000268944663441A88234C2240114353
:1010500019809AE71A78920001688C4662441188D8
:101060004C0404D51A4C21401D4C214311801A78A0
:10107000920001688C46624411884C0604D5144CD9
:101080002140144C214311801A78920001688C464B
:10109000624411880E4C0C401149214311801C7888
:1010A000A40002689446644422880B490A400B4914
:1010B0000A4322801B789B000268944663441A8886
:1010C000084C2240114319805FE7022062E7C046C6
:1010D0000F0F0000C080FFFFBF8FFFFF8080FFFF6A
:1010E00080C0FFFF8FBFFFFF70B57F242140CD0080
:1010F0006D1AAC00041925001935FF352A6022004D
:101100001D32FF321360083500222A60173D2A7015
:1011100022000932FF3211701534FF3422689342E5
:1011200040D9CD006D1AAC0004191D34FF349B1A50
:101130002360CC00641AA3001C00C3181333FF33D0
:101140001B78002B41D105685033EB5A0419093440
:10115000FF342478E4001B195B195E4CA4466344F9
:101160003E2A29D95409A4B2D20601D1013CA4B225
:10117000A402A4B2584A14431C800368CA00511A3E
:101180008A0080180930FF30027892009B18198875
:10119000524A1140C02292015140514A0A431A80DA
:1011A000002070BDCC00641AA20082181D32FF32EC
:1011B000002414601A00BCE75408A4B2D20701D579
:1011C0000134A4B2A4021C80D7E7CC00641AA300A7
:1011D0001C00C3180A33FF331B78002B23D105688A
:1011E0005033EB5A04190934FF342478E4001B19F6
:1011F0005B193C4CA44663443E2A0BD95409A4B263
:10120000D50601D1013CA4B2A402A4B2324D2C43B4
:101210001C800AE05408A4B2D50701D50134A4B259
:10122000A4021C8001E0012B24D0CC00641AA3008E
:101230001C00C3180A33FF331B78002B35D1056817
:101240005033EB5A04190934FF342478E4001B1995
:101250005B19204CA44663443E2A1DD95409A4B20C
:10126000D20601D1013CA4B2A402A4B21A4A14438A
:101270001C8082E705684F33EB5ACE00761AB40023
:1012800004190934FF342478E4001B195B19154C48
:10129000A44663441A80C8E75408A4B2D20701D513
:1012A0000134A4B2A4021C8067E7012B00D064E7DC
:1012B00005684F33EB5ACE00761AB400041909348E
:1012C000FF342478E4001B195B19024CA4466344E4
:1012D0001A8052E7060400000080FFFF8FBFFFFF67
:1012E0008080FFFF020400007F231940CB00591AC1
:1012F0008B00C0182130FF300088704710B5F423F0
:101300005B00C35C012B4DD0F4235B000122C2546F
:101310004CB2002C20DBCA00521A93000933FF3371
:10132000C31801229A707E3211401970E40F5C706C
:1013300000291AD1890003689C4661440A881A4B27
:101340001A401A4B5A401A4B13430B80F4235B008C
:101350000022C254002010BD6A3BFF3B0B40DA0064
:10136000D21A93002833C318DBE7002C0CD0890075
:1013700003689C4661440B880E4A13401022534078
:101380000B4A13430B80E1E7890003689C466144E4
:101390000A88094B1A4080235B015A40044B1343CF
:1013A0000B80D3E70220D6E7BFBFFFFF101000007D
:1013B0008080FFFFBF8FFFFF8FBFFFFF10B54AB2D6
:1013C000002A38DBCC00641AA3000933FF33C318AA
:1013D00000249C707F3421401970D20F5A70F4227F
:1013E0005200825C012A4AD0F42252000121815429
:1013F0005A78002A27D01A78920001688C466244F5
:1014000011884C0604D51F4C21401F4C21431180EC
:101410001A78920003689C46624413881B490B406B
:1014200030214B401A490B431380F4235B00002208
:10143000C254002010BD7F230B40DC00E41AA3003F
:101440002833C318C4E71A78920001688C466244B6
:1014500011884C0404D50B4C21400E4C21431180C3
:101460001B789B0002689446634419880A4A11401D
:10147000C02292015140064A0A431A80D5E7022051
:10148000D8E7C0460F0F0000C080FFFFBF8FFFFFEF
:101490008080FFFF80C0FFFF8FBFFFFF10B50133CB
:1014A0005B0812188020C0008446624407E0087878
:1014B0004C782402044314800231013B0232002B99
:1014C000F5D110BDF8B505007F240C40E000001BED
:1014D000810069188A63CB6300220A640A002932FA
:1014E00001201070013A14704F6BBB4233D9DB1BE3
:1014F000CB63E200121B93001A00EB1832331B7807
:10150000002B30D02868E200121B9300EB18283320
:101510001B789A00825A520674D5E600361BB20038
:10152000AA1829321278002A3BD15032825ADB00A5
:10153000D3181818614B9C4660443E2F28D97B096C
:101540009BB2FA0601D1013B9BB29B029BB25C4A63
:101550001343038027E0E100091B8A00AA18002139
:10156000D1631F00C5E7BFB2AE18B28D3B00B16BAF
:101570002868FFF793FF2A685023D35A283631781A
:10158000C9005B189B184F4A944663441F8082E051
:101590007B089BB2FA0701D501339BB29B02038003
:1015A00001E0012A24D0E200121B9300EB181A8EEE
:1015B000BBB2E100091B8E00AE19B16B2868FFF7C2
:1015C0006DFF29363378002B55D0012B63D1E20013
:1015D000121B9300EB1828331B789B002A68944653
:1015E00063441A8838491140384A0A431A8052E045
:1015F0004F32825ADB00D3181818304B9C46604497
:101600000780D0E7E600361BB200AA18293212780C
:10161000002A1ED15032825ADB00D3181818294BE9
:101620009C4660443E2F0BD97B099BB2FA0601D140
:10163000013B9BB29B029BB2214A134303800AE009
:101640007B089BB2FA0701D501339BB29B02038052
:1016500001E0012A05D0E200121B9300EB18DA8D9D
:10166000A6E74F32825ADB00D3181818154B9C4658
:1016700060440780EFE7E200121B9300EB18283369
:101680001B789B002A68944663441A880E491140CF
:101690000F4A0A431A802A68E1000C1BA300ED18C8
:1016A00028352B789B00D21813880A490B4030212B
:1016B0004B4009490B4313800020F8BD060400008D
:1016C0000080FFFF020400000F0F000080C0FFFF3A
:1016D000C080FFFFBF8FFFFF8080FFFF30B55D0838
:1016E00012188020C0008446624406E014880C7002
:1016F000240A4C70013D02320231002DF6D1DB0785
:1017000001D513880B7030BDF0B583B0050001AB77
:1017100000221A8028684423C35A9BB26A46D380A9
:101720001BB2002B00DB39E26B46DC880F231C4028
:1017300000D0B5E06B4606331B88DB064BD502882C
:1017400001AB1A801B881B0575D401AB1B881BB22B
:10175000002BDFDA0388CA4A13400380286850232D
:10176000C35A84225200AA5CD2009B181B18C54A97
:10177000944663441B889B059B0D2A000932FF3267
:101780009361002B00D077E000212800FEF76CFF6A
:101790002B6850229A5A9A18BA4B9C4662442B00E6
:1017A0000933FF33D9683E2971D94B099BB2C90669
:1017B00001D1013B9BB29B029BB2B3490B43138007
:1017C00029680A88B14B1A40C0239B015A40B04B8C
:1017D00013430B809EE70388AE4A134003802968B9
:1017E0005023CB5A2822AA5CD2009B185B18AA4A25
:1017F000944663441B889B059B0D2B64AA6B9446FF
:101800006344AB6300212800FEF73DFF2423EB5C1B
:10181000002B00D17EE7EB6B002B00D07AE724226F
:10182000AB5C802149420B43DBB2CC312868435288
:101830000023AB546EE75023C35A84225200AA5CA3
:10184000D2009B181B188F4A944663441B889B0543
:101850009B0D2A000932FF3293612900ED31FF31DF
:101860009288FFF73BFF2A68138885490B40138055
:101870002800FEF7EFFE4DE7140092882169FFF77C
:101880002DFF2369A2699446634423617CE74B08DA
:101890009BB2C90701D501339BB29B0213808FE72E
:1018A000A700C019028801AB1A801B881BB2002B4D
:1018B00031DB01AB1B881B0600D42BE72B689C4651
:1018C00067443B88734A13403B80E200121B93003D
:1018D0001A00EB1832331B78002B00D0E2E02868A6
:1018E0005033C35AAA18110028310978C9005B186F
:1018F0001B1869498C4663441B889B059B0D136428
:1019000000D1FDE0E200121B910069188A8D896BFD
:10191000FFF7C4FDF4E05A4B1A400280E200121BAC
:1019200093001A00EB181333FF331B78002B1DD1E3
:1019300028685033C35A1100AA180932FF321278AE
:10194000D2009B181B184F4A944663441E88B60564
:10195000B60D34D06B181A000D32FF3212881933CD
:10196000FF3319683300FFF7B9FE28E02868E2006A
:10197000121B9300EB180933FF331B789A00825A2D
:10198000520456D55022825ADB00D3181B18424A03
:10199000944663441E88B605B60D3BD1E200121B87
:1019A0009300EB180933FF331B789B002A68944699
:1019B00063441A8839491140394A0A431A80310070
:1019C000E200121B9300EB1818002130FF30026870
:1019D000921902601A001932FF3210688446664478
:1019E00016601D33FF331B68002B08D0E200121B6A
:1019F000900028181530FF300268914234D2E2007E
:101A0000121B9300EB180933FF3319782800FEF7F7
:101A10002BFE4EE7E200121B9300EB181A000F3268
:101A2000FF3212881933FF3319683300FFF756FE6F
:101A3000B4E75022825ADB00D3181B18114A94468F
:101A400063441E88B605B60DA8D0E200121B9300B1
:101A5000EB181A001132FF3212881933FF3319685C
:101A60003300FFF73BFE99E7E100091B8A00AA1843
:101A70000932FF32117832002800FFF735FB18E7F2
:101A80008F0F0000060400000080FFFF8FBFFFFFE4
:101A90008080FFFF0F8FFFFF020400000F0F000088
:101AA000C080FFFF2868E200121B9300EB18283368
:101AB0001B789A00825A52064DD55022825ADB007A
:101AC000D3181B18374A944663441B889B059B0D0B
:101AD000E100091B8A001100AA181364002B34D1FD
:101AE000E200121B9300EB1828331B789B002A6836
:101AF000944663441A882C4911402C4A0A431A80A0
:101B000028685023C25AE100091B8B00EB1819000A
:101B100028310978C9005218121822498C466244AB
:101B200012889205920D1A64996B8C4662449A63EE
:101B3000DB6B002B28D1E3001C1BA300EB18283320
:101B400019782800FEF79FFDE4E56918CA8D896BB6
:101B5000FFF7A4FCC4E75022825ADB00D3181B18FD
:101B6000134A944663441B889B059B0DE100091BA7
:101B70008A001100AA181364002BB1D069180A8ECC
:101B8000896BFFF78BFCABE7E1000C1BA100691828
:101B9000283109782800FFF795FCBBE5002003B049
:101BA000F0BDC046020400000F0F000080C0FFFF20
:101BB0000604000070B5040044230268D35A1BB227
:101BC000002B46DB236844229A5A520544D42368EA
:101BD00044229A5A520404D544215A5A34480240A5
:101BE0005A52236844229A5A920404D544215A5ADC
:101BF000304802405A52236844229A5AD20438D4B8
:101C0000236844229A5A120513D54422995A2A4825
:101C10000140995220684023C15A08252943C152E6
:101C20002068C15A04252943C15223689B5ADB040A
:101C300031D5236844229A5A920530D4236844222D
:101C40009A5AD20504D544215A5A1C4802405A5285
:101C500070BDFFF759FDB5E744215A5A18480240B4
:101C60005A522000FEF723FD00212000FEF78EFFD0
:101C7000ADE74022995A042081439952114B2168C3
:101C80008B522000FEF732FD216844228B5A0E4809
:101C900003408B52B4E72000FEF716FDC9E744214C
:101CA0005A5A0A4802405A522000FEF7F9FCC5E78A
:101CB000FFBFFFFFFFDFFFFFFFF7FFFFFFFEFFFF9D
:101CC000FFFBFFFF00BDFFFFFFEFFFFFFFFDFFFF7B
:101CD00010B50C060FD57F242140CC00611A8C0072
:101CE00028340019002A0DD001228272C3801B0CF7
:101CF0000381002010BDCC00611A8C000934FF3430
:101D00000019EFE782728380F3E730B5036A046A53
:101D10000125AC4304628469EF35AC4312012243D0
:101D20000A24A34319438261016230BD30B5036ABE
:101D30001024A34303628469036A054D2C401203F7
:101D40002243A024A343090119438261016230BDEB
:101D5000FF0FFFFF8368702293430722114319434B
:101D6000816070470368DA6801210A43DA6002681B
:101D700013680B431360002070477047704770472B
:101D80007047704710B5040003681A6992070FD5B1
:101D9000DA6892070CD5032252421A6101230377B5
:101DA00003689B699B0763D0FFF7E9FF0023237754
:101DB00023681A69520712D5DA6852070FD505222F
:101DC00052421A610223237723689A69C0239B0039
:101DD0001A4253D02000FFF7D2FF00232377236855
:101DE0001A69120710D5DA6812070DD50922524276
:101DF0001A61042323772368DB699B0745D0200001
:101E0000FFF7BDFF0023237723681A69D20612D596
:101E1000DA68D2060FD5112252421A6108232377BD
:101E20002368DA69C0239B001A4235D02000FFF7EF
:101E3000A6FF0023237723681A69D20702D5DA6840
:101E4000D20730D423681A69120602D5DA6812065E
:101E500030D423681A69520602D5DA68520630D4A3
:101E600023681A69920602D5DA68920630D410BD4A
:101E7000FFF784FF2000FFF783FF97E72000FFF7BD
:101E80007DFF2000FFF77CFFA7E72000FFF776FF2C
:101E90002000FFF775FFB5E72000FFF76FFF200078
:101EA000FFF76EFFC5E7022252421A612000FFF7DA
:101EB00064FFC7E7812252421A61200000F02BF92B
:101EC000C7E7412252421A612000FFF75AFFC7E7D5
:101ED000212252421A61200000F01CF9C7E70000DD
:101EE00003681A4A904202D0194A904203D17022E4
:101EF00093434A681343154A90420BD0144A9042C8
:101F000008D0144A904205D0134A904202D0134A96
:101F1000904203D1124A1340CA681343802293436C
:101F20004A69134303608B68C3620B688362074B83
:101F3000984205D0084B984202D0084B984201D1F4
:101F40000B690363012343617047C046002C0140C5
:101F500000040040002000400044014000480140CF
:101F6000FFFCFFFF70B5041E14D03D23C35C002BA3
:101F70000AD03D2502236355211D2068FFF7B0FFDD
:101F800001236355002070BD3C330022C254FEF78C
:101F900073FDEEE70120F6E730B58468034D2C4071
:101FA0001B021A4311432143816030BDFF00FFFF34
:101FB00010B504003C23C35C012B00D17FE03C231F
:101FC0000122C25401330132C254026893683D4871
:101FD000034093600B68402B5DD010D9702B43D029
:101FE00020D8502B4DD0602B36D1CA684968206864
:101FF000FFF79CFE60212068FFF7ACFE2CE0102B61
:1020000053D008D9202B55D0302B25D13021206832
:10201000FFF7A0FE20E0002B1ED100212068FFF773
:1020200099FE19E080225201934210D08022920141
:10203000934211D1CB684A6889682068FFF7ACFFEA
:10204000226891688023DB010B43936004E02268DF
:10205000936807218B4393603D230122E254013BA7
:102060000022E254002010BDCB684A6889682068CD
:10207000FFF792FF2268936877218B430B439360AD
:10208000EAE7CA6849682068FFF73FFE50212068E8
:10209000FFF760FEE0E7CA6849682068FFF735FE91
:1020A00040212068FFF756FED6E710212068FFF791
:1020B00051FED1E720212068FFF74CFECCE702203B
:1020C000D1E7C0468800FFFFF0B53C23C35C012B7D
:1020D0001ED03C22012585543D2402230355066869
:1020E00073687027BB437360066873680F683B436F
:1020F00073600668B3688027BB43B3600668B36843
:1021000049680B43B3600555002383540020F0BD9C
:102110000220FCE77047704770B582B00400036886
:10212000DB072BD5B34B5A680C231340042B1DD06F
:10213000B04B5A680C231340082B0ED06368012B58
:1021400041D0002B56D1AB4B1A68AB490A401A60FC
:102150001A68AA490A401A603BE0A64B5B68C02295
:1021600052021340802252029342E7D1A14B1B68D6
:102170009B0303D56368002B00D1F1E123689B0723
:1021800078D59C4B5B680C221A4262D0994B5A68F6
:102190000C231340082B53D0E368002B00D18BE0B5
:1021A000944A136801210B43136000F093FB050070
:1021B000904B1B689B0776D400F08CFB401B0228D9
:1021C000F6D90320CFE18B4A116880235B020B43D1
:1021D00013606368002B25D000F07CFB0500854B65
:1021E0001B689B03CAD400F075FB401B6428F6D91A
:1021F0000320B8E1052B09D07E4B1A687E490A40BE
:102200001A601A687D490A401A60E2E7794B19683A
:102210008022D2020A431A601968802252020A43BD
:102220001A60D6E700F056FB0500724B1B689B0353
:10223000A4D500F04FFB401B6428F6D9032092E19F
:102240006C4B5B68C0225202134080221202934200
:10225000A2D1684B1B689B0704D5E368012B01D012
:10226000012080E163490B68F82293432269D20080
:1022700013430B6023681B0744D5E369002B2ED062
:102280005C4A536A01210B43536200F023FB0500B3
:10229000584B5B6A9B0735D400F01CFB401B02289F
:1022A000F6D903205FE153490B68F8229343226972
:1022B000D20013430B60DDE74E4A136801218B43C4
:1022C000136000F007FB05004A4B1B689B07D1D544
:1022D00000F000FB401B0228F6D9032043E1454AE9
:1022E000536A01218B43536200F0F4FA0500414B1D
:1022F0005B6A9B0706D500F0EDFA401B0228F6D971
:10230000032030E123685B0700D47FE0394BDB69B1
:10231000DB001DD4374AD169802040050143D161DB
:10232000D36903400193019B0125354B1B68DB05F5
:1023300010D5A368012B21D0002B36D12D4B1A6A62
:1023400001218A431A621A6A03318A431A621AE027
:102350000025EAE72A4A116880235B000B431360DB
:1023600000F0B8FA0600264B1B68DB05E1D400F04C
:10237000B1FA801B6428F6D90320F4E01D4A136AE1
:1023800001210B431362A368002B24D000F0A2FAB2
:102390000600184B1B6A9B0736D400F09BFA801B83
:1023A000184B9842F5D90320DDE0052B09D0114BDD
:1023B0001A6A01218A431A621A6A03318A431A622D
:1023C000E1E70C4B1A6A04210A431A621A6A0339BC
:1023D0000A431A62D7E700F07DFA0600054B1B6A34
:1023E0009B0711D500F076FA801B064B9842F5D971
:1023F0000320B8E000100240FFFFFEFFFFFFFBFFDD
:102400000070004088130000012D33D02368DB06E4
:1024100010D56369012B33D0053351D1544A536B26
:1024200004218B435363536BF4318B43A169C9007F
:102430000B435363236A002B00D193E04C4A51684D
:102440000C220A40082A00D18FE0022B4FD0484AC4
:10245000136848490B40136000F03CFA0400444BF9
:102460001B689B017AD500F035FA001B0228F6D9CB
:10247000032078E03E4AD3693F490B40D361C5E76A
:102480003B4B5A6B04210A435A635A6B03390A4384
:102490005A6300F01FFA0500354B5B6B9B0706D4AF
:1024A00000F018FA401B0228F6D903205BE03049FF
:1024B0004B6BF8229343A269D20013434B63B9E7F5
:1024C0002B4B5A6B04210A435A635A6B03398A43D4
:1024D0005A6300F0FFF90500254B5B6B9B07A9D5FC
:1024E00000F0F8F9401B0228F6D903203BE0204A0F
:1024F000136820490B40136000F0ECF905001C4BF9
:102500001B689B0106D500F0E5F9401B0228F6D9AF
:10251000032028E0164BDA6A0F218A43E16A0A4356
:10252000DA625A6815490A40A16A606A01430A439F
:102530005A601968802252040A431A6000F0CAF9EE
:1025400004000B4B1B689B0106D400F0C3F9001B71
:102550000228F6D9032006E0002004E0002002E073
:10256000012000E0002002B070BD0120FBE7C04662
:1025700000100240FFFFFFFEFFFFFFEFFF7FC2FFE3
:1025800030B589B004AA184B180032C832C2110005
:1025900002680A606A46103313CB13C21B681360CB
:1025A000124B5B680C221A40082A1BD1990C073287
:1025B000114004A8445C0D49C96A0A406946895C17
:1025C000C0225202134080225202934205D0084892
:1025D000FDF79AFD604309B030BD0548FDF794FD55
:1025E0006043F8E70248F6E70038000800100240B0
:1025F00000127A0070B505000C004D4B1A680123DB
:1026000013408B420BD24A490B6801229343234368
:102610000B600B681A40A24201D0012070BD2B68EC
:102620009B0706D5434A5368F0218B43A9680B43A7
:1026300053602B68DB074BD56B68012B20D0022B36
:1026400024D03C4A126892076FD53A494A68032061
:10265000824313434B6000F03DF906006B68012B89
:102660001AD0022B26D0334B5B680C221A422FD093
:1026700000F030F9801B304B9842F4D90320CDE7AD
:102680002C4A12689203E0D40120C7E7294A126855
:102690009201DAD40120C1E7264B5A680C2313407B
:1026A000042B15D000F016F9801B234B9842F3D968
:1026B0000320B3E71F4B5A680C231340082B07D0A5
:1026C00000F008F9801B1C4B9842F3D90320A5E7C2
:1026D000174B1A6801231340A3420BD914490B6806
:1026E0000122934323430B600B681A40A24201D09E
:1026F000012093E72B685B0706D50E4A53680F4904
:102700000B40E9680B435360FFF73AFF094B5A68E7
:1027100012090F2313400A4AD35CD840094B1860B2
:10272000002000F0ADF8002078E7012076E7C046F1
:10273000002002400010024088130000FFF8FFFF55
:102740008438000844000020014B18687047C046D8
:102750004400002070B582B004000368DB0335D567
:10276000414BDB69DB0052D43F4AD16980204005F0
:102770000143D161D36903400193019B01253B4B88
:102780001B68DB0545D5384B1B6AC02292001340FD
:1027900013D061680A409A420FD0334B186A344A0A
:1027A00002401E6A8021490231431962196A314E82
:1027B000314019621A62C3073FD42B4A136A2C496D
:1027C0000B4061680B431362012D45D02368DB0782
:1027D00006D5254A136B03218B43A1680B43136372
:1027E00023689B0606D5204A136B10218B43E168B2
:1027F0000B43136323689B0333D51B4A136B802160
:102800008B4321690B431363002002B070BD002588
:10281000B5E7164A116880235B000B43136000F094
:1028200059F80600114B1B68DB05ACD400F052F8D8
:10283000801B6428F6D90320E7E700F04BF8060078
:10284000094B1B6A9B07B8D400F044F8801B0A4B65
:102850009842F5D90320D8E7D36908490B40D361E2
:10286000B4E70020D1E7C0460010024000700040ED
:10287000FFFCFFFFFFFFFEFF88130000FFFFFFEFDD
:1028800010B50400FFF760FFFA218900FDF73CFC5A
:1028900000F046F9012000222100404200F006F934
:1028A000002010BD10B5064A136810210B431360B9
:1028B0000020FFF7E5FFFEF7C7F8002010BDC04677
:1028C00000200240024A1368013313607047C0467B
:1028D000F4110020014B18687047C046F411002025
:1028E00030B583B00190FFF7F5FF0500019C631C34
:1028F00000D00134FFF7EEFF401BA042FAD303B033
:1029000030BD0000F0B5C64600B582B0002338E007
:10291000032600E00026AE4035003D430234A4000B
:10292000554EA551554C25684246D4432E002640AD
:102930004A68D20302D5424615432E004F4D2E6001
:102940006D682E0026404A68920302D54246154320
:102950002E004A4D6E60AD682E0026404A68D202B5
:1029600002D5424615432E00444DAE60ED682C4022
:102970004A68920202D542462A4314003F4AD46074
:1029800001330A681400DC4071D001259D402A40C3
:102990009046F5D04C68022C01D0122C0ED1DC08E8
:1029A0000834A400275807261E40B6000F22B24064
:1029B00097430A69B24016003E43265002685F0002
:1029C00003242600BE40F643324094464A68144031
:1029D000BC406246144304604C68621E012A03D95D
:1029E000112C01D0122C10D184683440A446CC683C
:1029F000BC406246144384604468AC434A68120990
:102A0000012515409D4025434560C46826408C68DB
:102A1000BC403443C4604A68D200B1D5184DAE6999
:102A200001242643AE61AD692C400194019C9C08B1
:102A3000A51CAD00104EAF5903251D40AD000F265B
:102A4000AE40B7439026F605B04200D162E70D4E86
:102A5000B04208D00C4EB04207D00C4EB04200D16C
:102A600056E7052657E7012655E7022653E702B049
:102A700004BC9046F0BDC046000001400004014087
:102A8000001002400004004800080048000C004804
:102A900003690B4201D1002070470120FCE7002AA6
:102AA00001D1816270478161FCE7000070B50028A8
:102AB00011DB8408134DC034A4006259032318406D
:102AC000C000FC331E008640B24389010B408340A6
:102AD0001343635170BDC0B20F220240083A9208FE
:102AE00006329200084BD3185D6803242040C000D2
:102AF000FF2214008440A54389010A4082402A43F2
:102B00005A60E7E700E100E000ED00E01F23184015
:102B10001E3B8340014A13607047C04600E100E05D
:102B200001380A4B98420FD8094A50600948036A95
:102B30001B021B0AC02109060B430362002393609A
:102B400007331360002070470120FCE7FFFFFF0000
:102B500010E000E000ED00E0134B1A6801210A4389
:102B60001A605A68114802405A601A6810480240B8
:102B70001A601A680F4802401A605A680E480240EC
:102B80005A60DA6A0F208243DA621A6B0B480240FD
:102B90001A631A6B802002431A635A6B8A435A6382
:102BA00000229A607047C046001002400CB8FF082F
:102BB000FFFFF6FEFFFFFBFFFFFFC0FF6CFEFFFF06
:102BC00010B5002816D085239B00C358002B03D0D6
:102BD00085239B000024C450002902D084239B003D
:102BE000C150FE235B000121C1540270FDF794FD2A
:102BF000002010BD0220FCE7002904D085239B00A3
:102C0000C150002070470220FCE710B5FDF7C8FD59
:102C1000002010BD10B585239B00C358002B07D0A2
:102C20001B689847002801D1002010BD0220FCE756
:102C30000220FAE710B585239B00C3585B689847CC
:102C4000002010BD70B5040082239B00C518280029
:102C500000F02CF9FA235B000122E250124BE25AF9
:102C6000163BE2501033E15CEA3BFF3B0B40012B8B
:102C70000FD0002B07D0022B10D07F2399432000C8
:102C8000FDF7C1FD03E02900200000F0B3FA0020A9
:102C900070BD2900200000F0D1FAF8E729002000DB
:102CA00000F0EBFAF3E7C0460E02000010B5040096
:102CB0001300002929D1FA2252008258032A01D098
:102CC000002010BD421DFF329168D26891420FD89A
:102CD00085239B00C3581B69002B05D0FE225200A0
:102CE000825C032A00D19847200000F0AEFBE7E7A2
:102CF000891A0530FF3081608A4200D90A0092B2F9
:102D00001900200000F099FBDAE785239B00C358E7
:102D10009B69002BD4D0FE225200825C032ACFD1C3
:102D20009847CDE770B50400130000294ED1FA2270
:102D300052008258022A06D080239B00E35C012BBC
:102D40003FD0002070BDC269056AAA421ED88669BC
:102D500029003000FDF75EFA002906D1B54204D8FB
:102D6000FC235B00E3589E421DD385239B00E35860
:102D7000DB68002B06D0FE225200A25C032A01D1A0
:102D800020009847200000F06CFBD5E7521BC26181
:102D900092B2190000F039FB00230022002120002C
:102DA000FDF78BFDC8E70022200000F02EFBFC237E
:102DB0005B000022E250002300212000FDF77DFD92
:102DC000BAE780239B000022E254BAE785239B00E8
:102DD000C3585B69002BB4D0FE225200825C032AE8
:102DE000AFD19847ADE770B5040040230022002121
:102DF000FDF7E6FC402588235B00E550D03B002230
:102E000080212000FDF7DCFC2562FE235B0001220F
:102E1000E2541C33E358002B06D085239B00E35873
:102E20005B68217920009847002070BD0174002064
:102E30007047FE235B00C15CFE22FF328154FA3AE8
:102E4000FF3AC25400207047FE23FF33C25C013BAF
:102E5000C2540020704710B5FE235B00C35C032BF7
:102E600001D0002010BD85239B00C358DB69002BD7
:102E7000F7D09847F5E70300002002E00130C0B228
:102E800001331A78002AF9D1704710B504004B8835
:102E9000012B0AD181239B000122C2501033C35859
:102EA0009B689847200000F0D0FA10BD0B780370A3
:102EB0004B7843708B78CA7812029B1843800B7949
:102EC0004A7912029B1883808B79CA7912029B1867
:102ED000C380704710B504008021FDF794FC0021E9
:102EE0002000FDF790FC10BD30B583B004000D004C
:102EF0004A88130A072B00D98EE09B004F49CB5814
:102F00009F4684239B00C3581B68007C6A46911D22
:102F100098476B4606331B88002B03D0EA88002AAB
:102F200000D07EE003B030BD037C002B09D18523A7
:102F30009B00C3589B6A6A46901D984702234370C2
:102F4000E7E785239B00C358DB6A6A46901D9847D4
:102F500002234370DDE7D2B2052A39D89200384BFC
:102F60009B589F4684239B00C3585B68007C6A463D
:102F7000911D9847CDE784239B00C3589B68007C34
:102F80006A46911D9847C4E784239B00C358DB68B9
:102F9000007C6A46911D9847BBE784239B00C35879
:102FA0001B69007C6A46911D9847B2E784239B0009
:102FB000C3585B69007C6A46911D9847A9E7842342
:102FC0009B00C3589B69007C6A46911D9847A0E707
:102FD0002900FFF77FFFA5E7037C002B07D185239E
:102FE0009B00C3585B6B6A46901D984791E7290088
:102FF000FFF770FF96E7037C002B09D185239B0028
:10300000C3581B6B6A46901D98470723437080E79F
:103010002900FFF75FFF85E729002000FFF75AFF2F
:1030200080E7191C934200D9111C8AB26B46D980E3
:103030000100200000F0DBF974E7C0469438000876
:10304000B438000870B504008B88002B22D1CB88DF
:10305000002B1FD18B787F251D40FE235B00C35CB6
:10306000032B0FD0FF235B00C5542900FDF705FC9F
:10307000200000F0EAF9002D07D0FE235B000222B9
:10308000E2540AE0FFF726FF07E0FE235B0001227F
:10309000E25402E02000FFF71DFF70BD70B5040090
:1030A0000D008978284B197001290AD8FE235B008E
:1030B000C35C022B09D0032B1ED02900FFF70AFFA7
:1030C00002E02900FFF706FF70BD002911D0416022
:1030D000FE235B000322C254FFF79CFD022803D0AD
:1030E000200000F0B2F9EFE729002000FFF7F2FE20
:1030F000EAE700F0AAF9E7E7002911D0436899420E
:103100001ED0D9B2FFF796FD0F4B197861602000F1
:10311000FFF780FD02280ED0200000F096F9D3E7DB
:10312000FE235B000222C2544160FFF783FD2000B2
:1031300000F08BF9C8E729002000FFF7CBFEC3E7BA
:1031400000F083F9C0E7C0469C03002010B5CB888F
:10315000012B09D1FE235B00C35C022B07D0032B9C
:103160000DD0FFF7B7FE01E0FFF7B4FE10BD00235E
:10317000836001000831012200F039F9F6E7011DF2
:10318000012200F034F9F1E710B5FE235B00C35CC7
:10319000023BDBB2012B0ED80123C36081239B00CD
:1031A000C358002B01D00323C36001000C3102225D
:1031B00000F01DF910BDFFF78DFEFBE710B5040010
:1031C000FE235B00C35C023BDBB2012B0ED84B88B5
:1031D000012B0AD181239B000022C2501033C35817
:1031E0009B689847200000F030F910BDFFF772FE91
:1031F000FBE7000010B54B78092B19D89B000E4A4D
:10320000D3589F46FFF770FE002010BDFFF71AFF4E
:10321000FAE7FFF743FFF7E7FFF798FFF4E7FFF759
:10322000B3FFF1E7FFF731FEEEE7FFF7C7FFEBE78C
:10323000FFF750FEE8E7C046CC38000870B5040040
:103240000D00FE235B00C35C032B13D10B79012B14
:103250000DD885239B00C3589B689847EB88002BAB
:1032600001D0002070BD200000F0EFF8F9E7FFF773
:1032700031FEF6E7FFF72EFEF3E770B505000C0010
:103280008A88D1B2207860230340202B08D1F533FF
:10329000FF33EB589B68210028009847002070BD41
:1032A0006378012B2CD0002B52D0032BF6D1FA33AC
:1032B000FF33EB5C022B06D0032B0CD0210028003F
:1032C000FFF708FEEAE70029E8D08029E6D02800C9
:1032D000FDF799FAE2E76388002B06D1002904D0B4
:1032E000802902D02800FDF78EFA85239B00EB5839
:1032F0009B68210028009847280000F0A6F8CDE739
:10330000FE235B00EB5C022B06D0032B0CD02100CC
:103310002800FFF7DFFDC1E70029BFD08029BDD01D
:103320002800FDF770FAB9E76388002BB6D14B0689
:1033300003D1280000F089F8B0E72800FDF773FA00
:1033400085239B00EB589B68210028009847F0E7F5
:10335000FE235B00EB5C022B06D0032B0AD021007E
:103360002800FFF7B7FD99E74B0697D02800FDF737
:103370004AFA93E7130612D47F240C401034240138
:103380002C1904342800FDF75EFA00280ED0012322
:10339000236002222100280000F029F87EE77F2424
:1033A0000C40013424012C190434EBE70023236082
:1033B000EFE770B504000D001600002816D0FFF7E7
:1033C0005AFD0130400080B23080287003236B70BA
:1033D000013B08E001345A1CD2B2E9540233DBB29B
:1033E000AA180021117021780029F3D170BD10B501
:1033F0001300FA225200022484508361C3610A0040
:103400000021FDF74AFA002010BD10B513000A0094
:103410000021FDF742FA002010BD10B51300FA227A
:10342000520003248450EC3A8350043283500A0043
:103430000021FDF742FA002010BD10B513000A006C
:103440000021FDF73AFA002010BD10B5FA235B0009
:103450000422C250002300220021FDF71EFA0020A2
:1034600010BD10B5FA235B000522C25000230022D4
:103470000021FDF722FA002010BD86239B00C358CF
:10348000002B05D085229200002199500020704722
:103490000220FCE710B586239B00C4580433C358B0
:1034A000002B0DD080229200A05CFF2808D09B68E2
:1034B000044AA25C2100984780239B00FF22E2542B
:1034C000002010BD01020000432303800048704724
:1034D000800000204323038000487047C400002080
:1034E0004323038000487047140100200A2303800F
:1034F000004870470801002070B504008626B60019
:103500008559FDF7EAF983239B00E850A359002B66
:103510000BD087239B00E358DB6883229200A91815
:10352000083AA8589847002070BD0220FCE7000028
:1035300070B505000C0086239B00C6580978B93B7E
:10354000FF3B0B402AD0202B0AD1E288002A09D168
:1035500087239B00C3589B6860780022210098470E
:10356000002070BD49B200290CDAFD33FF33C35887
:103570009B68607831009847E28831002800FFF7A7
:1035800036FFEDE7627880239B00F254E288074B18
:10359000F254E2883100FFF740FFE1E763780A2B3D
:1035A000DED101220249FFF722FFD9E70102000024
:1035B0009D03002070B504008121FDF714F901215D
:1035C0002000FDF710F982212000FDF70CF9862379
:1035D0009B00E358002B0BD087239B00E3585B68CC
:1035E00098478625AD006059FDF782F900236351A5
:1035F000002070BD70B50400037C002B34D1802501
:10360000AD002B0002228121FDF7DAF82B00022207
:1036100001212000FDF7D4F8082303228221200095
:10362000FDF7CEF887208000FDF75EF905008623C0
:103630009B00E05000282DD00433E3581B689847C6
:10364000002385229200AB500432AB50237C002B28
:1036500016D081239B00EA58C53BFF3B0121200087
:10366000FDF72BF9002070BD402302228121FDF7D8
:10367000A7F84023022201212000FDF7A1F8CBE7A3
:103680008033143AAA589B0001212000FDF715F958
:103690000020E8E70120E6E7002904D087239B000B
:1036A000C150002070470220FCE786239B00C358CE
:1036B000822080001950842189005A5000207047D0
:1036C00086239B00C258143BD1500020704710B590
:1036D00086239B00C258002A16D0037C002B09D0F9
:1036E00081239B00D258C53BFF3B0121FDF7E5F844
:1036F000002010BD80338121890052589B00012198
:10370000FDF7DBF80020F4E70220F2E713488546D6
:1037100013480168090E134A914205D11248134912
:10372000016013481349016013481449144A0023E7
:1037300002E0D458C4500433C4188C42F9D3114A5F
:10374000114C002301E013600432A242FBD3FFF7C7
:1037500003FA00F01DF8FCF7C5FEFEE70018002094
:10376000040000001F0000001810024001000000CB
:10377000000001400000000000000020580100206F
:10378000FC38000858010020F8110020FEE7000076
:1037900070B500260C4D0D4C641BA410A64209D137
:1037A000002600F021F80A4D0A4C641BA410A64222
:1037B00005D170BDB300EB5898470136EEE7B30072
:1037C000EB5898470136F2E7F4380008F43800085F
:1037D000F4380008F838000803001218934200D1AA
:1037E000704719700133F9E7F8B5C046F8BC08BC5A
:1037F0009E467047F8B5C046F8BC08BC9E46704768
:1038000002030405060708090A0B0C0D0E0F101021
:103810000102030405060708090A0B0C0D0E0F1020
:10382000AEAA0E0064440E008E2E0E008E8E0E0088
:10383000AA8E08002E8E0E002EAE0E008E88080076
:10384000AEAE0E00AE8E080043444320436F6E665A
:103850006967000043444320496E74657266616382
:10386000650000004269747261660000422D74694F
:103870006D657200303030303030303030303141B2
:10388000000000000000000000000000010203042E
:103890000607080918300008022F0008282F000822
:1038A000562F00081830000818300008D82F0008DC
:1038B000F62F0008642F0008762F0008882F0008D4
:1038C0009A2F0008AC2F0008BE2F00081E320008F7
:1038D0002A32000830320008243200083032000852
:1038E0000C32000804320008303200081832000898
:0438F0001232000888
:0438F400E9000008DF
:0438F800C100000803
:1038FC00F508000801090008350900080D09000841
:10390C005109000879090008A109000812010002F8
:10391C000202004039054057000201020301000079
:10392C0004030904ED090008C9090008CD090008C1
:10393C00D109000800127A00F5350008B5350008E9
:10394C003135000800000000953400087B34000875
:10395C00F934000800000000000000000000000026
:10396C00D5340008C9340008E1340008ED340008EF
:10397C0009024300020100C03209040000010202E6
:10398C000100052400100105240100010424020299
:10399C000524060001070582030800100904010034
:1039AC00020A000000070501024000000705810221
:1039BC004000000009024300020100C0320904006B
:1039CC000001020201000524001001052401000180
:1039DC0004240202052406000107058203080010D6
:1039EC0009040100020A00000007050102000200A0
:1039FC0007058102000200000A06000200000040D8
:103A0C000100000009074300020104C03209040050
:103A1C00000102020100052400100105240100012F
:103A2C00042402020524060001070582030800FF96
:103A3C0009040100020A0000000705010240000011
:083A4C000705810240000000A3
:040000050800370DAB
:00000001FF
