:100000001DC035C034C033C032C031C030C02FC075
:100010002EC02DC02CC02BC02AC0FAC128C027C0BA
:1000200026C025C024C06F7BB274CF79CF73ED1387
:10003000E773E77B4F24EF7BEF73100411241FBE9F
:10004000CFEDCDBF10E0A0E6B0E0E6EEF8E002C0F4
:1000500005900D92A236B107D9F710E0A2E6B0E004
:1000600001C01D92A038B107E1F727D23AC4C8CF2A
:10007000A0E0B0E0EDE3F0E0FCC3D62EE82FF0E026
:10008000EE0FFF1FEA5DFF4FE590F590059114918B
:10009000E5E6F0E060E070E0C7E0D0E09E01062E0B
:1000A00002C0220F331F0A94E2F7442737FD409520
:1000B000542F2E213F2140235123062E04C0569554
:1000C0004795379527950A94D2F70D2C04C0220F37
:1000D000331F441F551F0A94D2F780819181A2815A
:1000E000B381822B932BA42BB52B81939193A19356
:1000F000B1936D5F7F4F80E0E937F80779F6CDB7B0
:10010000DEB7E7E0D2C3AC018530910519F411BA2E
:1001100012BA3CC0FB013697E330F10580F481E070
:1001200090E09C0102C0220F331F4A95E2F721BBE9
:1001300012BA02C0880F991FEA95E2F7B4C09B017A
:10014000295030402530310508F03CC0009791F42B
:1001500081E090E002C0880F991F2A95E2F7282FCE
:10016000206221BB82BB87B3887F87BB88B3887F2F
:1001700088BB4CC08130910579F402C0880F991F6B
:100180002A95E2F7282F206421BB82BB87B3887FA2
:1001900087BB88B3887FCDC08230910541F481E070
:1001A00090E002C0880F991F2A95E2F726C083309D
:1001B000910561F581E090E002C0880F991F2A95B2
:1001C000E2F74FC06E30710579F5009749F480E68B
:1001D00081BB80E482BB17BA18BA6FE070E016C02A
:1001E0008130910531F480E681BB80E282BB17BA91
:1001F00045C08230910529F480E281BB82BB81E059
:100200003CC08330910511F480E22BC0443051058D
:1002100009F0ACC06950704081E090E002C0880FE6
:10022000991F6A95E2F726C06F30710549F500976E
:1002300039F480E281BB12BA81E087BB88BB15C06C
:100240008130910529F480E481BB12BA81E02BC092
:100250008230910511F480E4D0CF8330910529F4E8
:1002600080E481BB82BB82E008C04430510509F0C4
:100270007DC080E481BB82BB84E087BB18BA08954F
:100280006031710551F5009739F480E281BB12BAF3
:1002900082E087BB88BB17C08130910531F480E4D0
:1002A00081BB12BA82E087BB44C08230910521F441
:1002B00011BA12BA83E03BC08330910521F411BA20
:1002C00012BA83E007C04430510509F04FC011BA9B
:1002D00012BA85E087BB81E02CC06131710559F508
:1002E000009739F480E281BB12BA84E087BB88BBF7
:1002F00018C08130910529F480E481BB12BA84E0F2
:10030000D2CF8230910521F411BA12BA85E006C02D
:100310008330910531F411BA12BA86E087BB84E0CC
:1003200008C04430510511F511BA12BA86E087BBF6
:1003300082E088BB08956817790714F06F5F7F4FDC
:1003400081E090E09C0102C0220F331F6A95E2F722
:1003500002C0880F991F4A95E2F7822B81BB22BB0E
:1003600087B3887F87BB88B3887F88BB08958091D7
:100370007B0021E030E040E050E004C0220F331F5A
:10038000441F551F8A95D2F720937C0030937D003F
:1003900040937E0050937F00E0916400F0E0EE0F08
:1003A000FF1FEE0FFF1FEB59FF4F80819181A2814C
:1003B000B381282339234A235B23211531054105C5
:1003C000510551F08091640090917B0061E170E0F3
:1003D000691B710990E004C085E090E06AE070E07C
:1003E00092DE809164008F5F8093640080917B0037
:1003F0008F5F80937B0080916400853010F01092B5
:10040000640080917B00823110F010927B0008958F
:100410001F920F920FB60F9211242F933F934F9379
:100420005F936F937F938F939F93AF93BF93EF935C
:10043000FF939DDF8091790090917A0001969093CF
:100440007A008093790012BE96B389B329B3817084
:100450009870892B2270822B80936300FF91EF911B
:10046000BF91AF919F918F917F916F915F914F91CC
:100470003F912F910F900FBE0F901F901895BC9A2F
:1004800040E050E070E03AE114C0C49A90E004C04B
:10049000232F2A95F1F79F5F9817D0F3C49890E027
:1004A00004C0232F2A95F1F79F5F9817D0F34F5F71
:1004B0005F4F4617570748F30895FF920F931F9316
:1004C000CF93DF9380E886BD16BC82E083BF12BE67
:1004D0008FE786BF81E089BF78948AB382708ABB38
:1004E0008BB383608BBBBB98C39A1092650010924C
:1004F00066001092670010926800109269001092D6
:100500006A0010926B0010926C0010926D001092B5
:100510006E0010926F001092700010927100109295
:100520007200109273001092740010927500109275
:1005300076001092770010927800809160006AE057
:1005400080D16FE095DD809160006AE07AD1892FDB
:100550006BE08EDD8AE068E08BDD809162006AE00E
:1005600070D164E085DD809162006AE06AD1892FF4
:1005700060E07EDD00E0C0EDD7E02BE3F22E80915D
:10058000630080FF52C0809163008E7F8093630080
:10059000002309F04AC0809162008F5F809362005F
:1005A0001092650010926600109267001092680029
:1005B0001092690010926A0010926B0010926C0009
:1005C00010926D0010926E0010926F0010927000E9
:1005D00010927100109272001092730010927400C9
:1005E00010927500109276001092770010927800A9
:1005F000809160006AE025D16FE03ADD8091600073
:100600006AE01FD1892F6BE033DD8AE068E030DDDE
:10061000809162006AE015D164E02ADD8091620079
:100620006AE00FD1892F60E023DD8091630081FFB4
:1006300052C0809163008D7F80936300002309F096
:100640004AC0809160008F5F8093600010926500C7
:100650001092660010926700109268001092690074
:1006600010926A0010926B0010926C0010926D0054
:1006700010926E0010926F00109270001092710034
:100680001092720010927300109274001092750014
:10069000109276001092770010927800809160009E
:1006A0006AE0CFD06FE0E4DC809160006AE0C9D0FE
:1006B000892F6BE0DDDC8AE068E0DADC80916200A3
:1006C0006AE0BFD064E0D4DC809162006AE0B9D017
:1006D000892F60E0CDDC8091630082FF13C08091A0
:1006E00063008B7F8093630080E090E0FE01319790
:1006F000F1F7019682339105C9F780E0002309F4F0
:1007000081E0082F8091790090917A00835C9E416E
:1007100008F435CF10927A0010927900002309F482
:100720002ECF8091620081508093620080916200A0
:100730008F3F09F040C0F0926200F89419C0809198
:1007400063008B7F809363001F5F153068F48AE03D
:1007500064EF95DE80E090E0FE013197F1F70196BD
:1007600082339105C9F70FC0812F8550883010F072
:1007700010E009C080E090E0FE013197F1F70196AA
:1007800082339105C9F78091630082FDD8CF80E064
:1007900090E0FE013197F1F7019621E0843F920746
:1007A000C1F78091630082FDFCCF809163008B7F55
:1007B0008093630078941092650010926600109206
:1007C0006700109268001092690010926A001092FF
:1007D0006B0010926C0010926D0010926E001092DF
:1007E0006F001092700010927100109272001092BF
:1007F000730010927400109275001092760010929F
:10080000770010927800809160006AE01AD06FE063
:100810002FDC809160006AE014D0892F6BE028DC27
:100820008AE068E025DC809162006AE00AD064E03A
:100830001FDC809162006AE004D0892F60E018DC40
:100840009ECE87FB082E062687FD819567FD619564
:100850003CD00EF4919507FC819508952F923F921C
:100860004F925F926F927F928F929F92AF92BF92C0
:10087000CF92DF92EF92FF920F931F93CF93DF936C
:10088000CDB7DEB7CA1BDB0B0FB6F894DEBF0FBEC9
:10089000CDBF09942A88398848885F846E847D8416
:1008A0008C849B84AA84B984C884DF80EE80FD8018
:1008B0000C811B81AA81B981CE0FD11D0FB6F8948E
:1008C000DEBF0FBECDBFED010895991B79E004C0D6
:1008D000991F961708F0961B881F7A95C9F780957F
:0608E0000895F894FFCF1B
:0208E60002000E
:00000001FF
