:100000001DC02AC029C028C027C026C025C024C0C2
:1000100023C022C021C020C01FC0DCC11DC01CC025
:100020001BC01AC019C06F7BB274CF79CF73ED13A8
:10003000E773E77B4F24EF7BEF73100411241FBE9F
:10004000CFEDCDBF20E0A0E6B0E001C01D92A43905
:10005000B207E1F77BD220C3D3CF20E030E02817EE
:10006000390749F0EFECF7E03197F1F700C00000F5
:100070002F5F3F4FF4CF08958F929F92AF92BF9220
:10008000CF92DF92EF92FF92A62FE82FF0E0EE0FD3
:10009000FF1FEA5DFF4FC590D590E590F490842F47
:1000A00090E064E170E0CED2FC01EB59FF4F20E01C
:1000B00030E087E090E0AC01022E02C0440F551FF3
:1000C0000A94E2F7052E000C660B770B4C215D219C
:1000D0006E217F21022E04C076956795579547952E
:1000E0000A94D2F70A2E04C0440F551F661F771FCB
:1000F0000A94D2F780809180A280B3804829592940
:100100006A297B2941935193619371932D5F3F4FEE
:100110002F30310581F6FF90EF90DF90CF90BF90A8
:10012000AF909F908F900895282F30E0C90164E12F
:1001300070E088D2FC01EB59FF4F108211821282CD
:1001400013821482158216821782108611861286F7
:1001500013861486158616861786108A118A128AC7
:10016000138A089527B3287F27BB28B3287F28BB8D
:10017000FB013697E330F105B8F421E030E0A90146
:1001800002C0440F551F8A95E2F741BB12BA47B32C
:10019000C90101C0880FEA95EAF7942F982B97BB05
:1001A00098B3892B88BB0895AB014950510946305B
:1001B000510548F56E30710511F4009721F0823039
:1001C000910574F402C06FE070E06950710921E09C
:1001D00030E0A90101C0440F6A95EAF7059696C080
:1001E00021E030E0B90102C0660F771F4A95E2F7BF
:1001F00061BB62BB47B3029701C0220F8A95EAF741
:10020000242B27BB08956F30710509F582309105C5
:100210006CF4059621E030E0A90102C0440F551F9F
:100220008A95E2F741BB12BAB89A32C020E421BBEA
:1002300022BB47B3029721E030E0B90102C0660F4C
:10024000771F8A95E2F7CB01842B87BB0895603135
:10025000710531F5823091056CF4059621E030E0AE
:10026000A90102C0440F551F8A95E2F741BB12BA9B
:10027000B99A3EC011BA12BA8230910519F487B307
:10028000836035C08330910529F487B3836087BBD1
:10029000C09A0895049709F040C087B38560F7CFEE
:1002A0006131710539F5823091056CF4059621E0D4
:1002B00030E0B90102C0660F771F8A95E2F761BB93
:1002C00012BABA9A0EC011BA12BA8230910519F454
:1002D00087B3856005C08330910529F487B38660B4
:1002E00087BBC29A08950497C1F487B3866087BB21
:1002F000C19A08956817790714F06F5F7F4F21E066
:1003000030E0A90101C0440F6A95EAF701C0220F4D
:100310008A95EAF7242B21BB42BB08950F931F93C4
:1003200080918F0001E010E020E030E004C0000F79
:10033000111F221F331F8A95D2F70093900010934C
:10034000910020939200309393008091630040913C
:10035000640090E065E070E075D1840F911DFC01B0
:10036000EE0FFF1FEE0FFF1FEB59FF4F80819181B2
:10037000A281B381082319232A233B23012B022BBB
:10038000032B51F090918F008091640061E170E047
:10039000691B710990E004C06AE070E085E090E0BC
:1003A000E1DE809164008F5F8093640080918F0014
:1003B0008F5F80938F0080916400853010F01092E1
:1003C000640080918F00823110F010928F001F9195
:1003D0000F9108951F920F920FB60F9211242F9331
:1003E0003F934F935F936F937F938F939F93AF93BD
:1003F000BF93EF93FF9392DF80918D0090918E00D9
:10040000019690938E0080938D0012BE26B389B31F
:1004100099B3382F3270822F8870832B9170892B7B
:1004200080936000FF91EF91BF91AF919F918F9169
:100430007F916F915F914F913F912F910F900FBEE0
:100440000F901F90189590E0981731F02AE12A95A7
:10045000F1F700C09F5FF8CF0895EF92FF921F93CE
:10046000CF93DF93182F7B01BC9AC0E0D0E0CE156C
:10047000DF0541F0C49A812FE6DFC498812FE3DFC6
:100480002196F5CFDF91CF911F91FF90EF900895C6
:10049000809160008095817008959091600081E066
:1004A00091FD80E008959091600081E093FD80E0EF
:1004B0000895CF93DF93C0E0F6DF811113C0D1E040
:1004C000DC0FD53028F464EF71E08AE0C6DF03C0AA
:1004D000C450C83020F482E390E0BFDD01C0D0E01A
:1004E000CD2FEACFDF91CF910895CF93DF93809105
:1004F0006300C1E08111C0E08C2F16DE80916100A5
:10050000DAE06D2FB0D04C2F6EE0B6DD8091610047
:100510006D2FA9D0892F4C2F6AE0AEDD4C2F67E0FC
:100520008AE0AADD809162006D2F9DD04C2F64E09F
:10053000A3DD809162006D2F96D0892F4C2F60E053
:100540009BDDC0936300DF91CF91089580E886BD65
:1005500016BC82E083BF12BE8FE786BF81E089BFF1
:1005600078948AB382708ABB8BB383608BBBBB9851
:10057000C39ABBDFC0E0DBE313E68ADF882389F0A0
:1005800087DF8111FDCFC1110CC0809162008F5FA8
:1005900080936200809162008C3314F0D0936200EB
:1005A000A4DF7BDF882389F078DF8111FDCFC111C3
:1005B0000CC0809161008F5F809361008091610029
:1005C000843614F01093610090DF6DDF882341F0D2
:1005D0006ADF8111FDCF81E0C11180E0C82F85DF86
:1005E00080918D0090918E00823C9E4131F6109258
:1005F0008E0010928D00CC23B9F080916200815062
:10060000809362008091620087FF0EC0809161003C
:10061000181644F480916100815080936100D0935A
:10062000620002C01092620060DFCC2309F4A5CF03
:10063000809162008111A1CF8091610081119DCFD5
:1006400038DF9BCF0024552704C0080E591F880FA0
:10065000991F009729F076956795B8F37105B9F75A
:10066000802D952F089587FB082E062687FD8195FE
:1006700067FD619505D00EF4919507FC819508956D
:10068000991B79E004C0991F961708F0961B881FE4
:0C0690007A95C9F780950895F894FFCF83
:00000001FF
